{
  "_format": "hh-sol-artifact-1",
  "contractName": "Add",
  "sourceName": "contracts/Add.sol",
  "abi": [
    {
      "inputs": [],
      "name": "add",
      "outputs": [
        {
          "internalType": "uint256",
          "name": "",
          "type": "uint256"
        }
      ],
      "stateMutability": "nonpayable",
      "type": "function"
    },
    {
      "inputs": [],
      "name": "number",
      "outputs": [
        {
          "internalType": "uint256",
          "name": "",
          "type": "uint256"
        }
      ],
      "stateMutability": "view",
      "type": "function"
    }
  ],
  "bytecode": "0x608060405260008055348015601357600080fd5b50610179806100236000396000f3fe608060405234801561001057600080fd5b50600436106100365760003560e01c80634f2be91f1461003b5780638381f58a14610059575b600080fd5b610043610077565b60405161005091906100b1565b60405180910390f35b610061610092565b60405161006e91906100b1565b60405180910390f35b60008060008154610087906100fb565b919050819055905090565b60005481565b6000819050919050565b6100ab81610098565b82525050565b60006020820190506100c660008301846100a2565b92915050565b7f4e487b7100000000000000000000000000000000000000000000000000000000600052601160045260246000fd5b600061010682610098565b91507fffffffffffffffffffffffffffffffffffffffffffffffffffffffffffffffff8203610138576101376100cc565b5b60018201905091905056fea2646970667358221220beb37c1479a212dcabf02c3a82997c4b015e3c52999917e738520f040ab3142164736f6c634300081b0033",
  "linkReferences": {},
  "deployedLinkReferences": {}
}